{
  "abi": [
    {
      "anonymous": false,
      "inputs": [
        {
          "indexed": false,
          "internalType": "uint256",
          "name": "num",
          "type": "uint256"
        }
      ],
      "name": "Receive",
      "type": "event"
    },
    {
      "anonymous": false,
      "inputs": [
        {
          "indexed": false,
          "internalType": "uint256",
          "name": "num",
          "type": "uint256"
        }
      ],
      "name": "Sent",
      "type": "event"
    },
    {
      "inputs": [
        {
          "internalType": "uint256",
          "name": "num",
          "type": "uint256"
        }
      ],
      "name": "receiveMessage",
      "outputs": [],
      "stateMutability": "nonpayable",
      "type": "function"
    },
    {
      "inputs": [
        {
          "internalType": "uint256",
          "name": "num",
          "type": "uint256"
        }
      ],
      "name": "sendMessage",
      "outputs": [],
      "stateMutability": "nonpayable",
      "type": "function"
    }
  ],
  "bytecode": {
    "object": "0x608060405234801561001057600080fd5b5061010b806100206000396000f3fe6080604052348015600f57600080fd5b506004361060325760003560e01c80630387a7a0146037578063072ac8be146048575b600080fd5b6046604236600460bd565b6057565b005b6046605336600460bd565b608e565b6040518181527fff9eb9d26c4f039c77fb69f72cdcd62f2942afe4d95c7b00919c9b6a6bf003f1906020015b60405180910390a150565b6040518181527f49b4c3f4344f33413322c03885f90f29e906bd8eb0cb2c3d815ee1ad2b3c989c906020016083565b60006020828403121560ce57600080fd5b503591905056fea2646970667358221220452ef14ba6cd6bd420878a9931c706ce9f330fbd016b37f38274e5b6c2ebaa3f64736f6c634300080f0033",
    "linkReferences": {}
  },
  "methodIdentifiers": {
    "receiveMessage(uint256)": "072ac8be",
    "sendMessage(uint256)": "0387a7a0"
  },
  "id": 8
}